S01700003139202D20445331333037204C43442E73726563E1
S113000012C021C020C01FC01EC01DC01CC01BC008
S11300101AC019C018C017C016C015C014C013C028
S113002012C011C010C011241FBECFE5D4E0DEBF42
S1130030CDBF20E0A0E6B0E001C01D92A736B20714
S1130040E1F742D044C0DCCF21D080ED28D080E05D
S113005026D01CD081ED23D029D08093640026D0F3
S11300608093620023D08093610020D08093650048
S11300701DD0809366001AD0809360001ED08093B8
S113008063000AD0089580E280B9089584EA86BFA7
S113009006B607FEFDCF089584E986BF089583B9A7
S11300A084E886BF06B607FEFDCF089584EC86BFBC
S11300B006B607FEFDCF83B1089584E886BF06B671
S11300C007FEFDCF83B10895DEDFBEDFFFCFF894D6
S10500D0FFCF5C
S9030000FC
