S01700003139202D20445331333037204C43442E73726563E1
S113000019C027C132C031C030C02FC02EC02DC08E
S11300102CC02BC02AC029C028C027C026C025C098
S113002024C023C022C099C19BC19DC19FC1A1C14D
S1130030A3C1A5C111241FBECFE5D4E0DEBFCDBF4F
S113004010E0A0E6B0E0E4EEF3E002C005900D920B
S1130050A23AB107D9F720E0A2EAB0E001C01D92AC
S1130060A93AB207E1F7A4D1BBC1CACF20D080ED31
S113007027D080E025D01BD081ED22D036D08093CC
S1130080A60033D08093A40030D08093A3002DD059
S11300908093A7002AD08093A80027D08093A20041
S11300A02BD08093A50009C080E280B9089584EA2A
S11300B086BF06B607FEFDCF089584E986BF08957E
S11300C083B984E886BF06B607FEFDCF0895CF93B3
S11300D0DF93C82FD62FEBDF8D2FF2DF8C2FF0DFCD
S11300E084E986BFDF91CF91089584EC86BF06B67C
S11300F007FEFDCF83B1089584E886BF06B607FEE8
S1130100FDCF83B10895CF93C82F85E88A95F1F781
S11301100000809160008460809360006CE4D7DF0D
S113012085E88A95F1F70000809160008F708C2B30
S1130130809360006CE4CBDF809160008B7F8093C0
S113014060006CE4CF91C3CFCF93C82F809160003F
S1130150613011F4816001C08E7F809360006CE493
S1130160B6DF8C2F807FCFDF809160008F7080930B
S113017060008C2F8295807FC6DF809160008F7035
S113018080936000CF9108958FE295E70197F1F78E
S113019000C0000080E3B7DF8FE097E20197F1F73A
S11301A000C0000080E3AFDF87EC90E00197F1F737
S11301B000C0000080E3A7DF8FEC97E00197F1F720
S11301C000C0000080E29FDF8FEC97E00197F1F719
S11301D000C0000060E088E2B7DF8FEC97E0019791
S11301E0F1F700C0000060E08CE0AEDF8FEC97E038
S11301F00197F1F700C0000060E081E0A5DF8FEC1B
S113020097E00197F1F700C0000060E086E09CDF12
S11302108FEC97E00197F1F700C000000895CF93A9
S1130220DF93EC018991882339F061E08DDF85E863
S11302308A95F1F70000F6CFDF91CF91089590E40D
S1130240699F800D112460E080687ECF60E081E0CA
S11302507BCF1F920F920FB60F9211242F933F93CF
S11302604F935F936F937F938F939F93AF93BF93BA
S1130270EF93FF93FBDE60E084E0E1DF8091A30075
S113028082958F7061E0805D5FDF8091A3008F7045
S113029061E0805D59DF61E08AE356DF8091A4006C
S11302A082958F7061E0805D4FDF8091A4008F7034
S11302B061E0805D49DF61E08AE346DF8091A6006A
S11302C082958F7061E0805D3FDF8091A6008F7022
S11302D061E0805D39DF61E080E0B1DF8091A800FA
S11302E082958F7061E0805D2FDF8091A8008F7010
S11302F061E0805D29DF61E08EE226DF8091A2006B
S113030082958F7061E0805D1FDF8091A2008F7005
S113031061E0805D19DF61E08EE216DF81E690E046
S11303207EDF8091A50082958F7061E0805D0CDF97
S11303308091A5008F7061E0805D06DF61E08CE054
S11303407EDFE091A7008E2F90E0FC013197E7302B
S1130350F105C0F4ED5EFF4F099484E690E011C00E
S113036088E690E00EC08CE690E00BC080E790E059
S113037008C084E790E005C088E790E002C08CE7FD
S113038090E04DDFFF91EF91BF91AF919F918F91DD
S11303907F916F915F914F913F912F910F900FBE7D
S11303A00F901F90189581E085BF80E48BBF08955E
S11303B0FADF7ADEE9DE80E890E031DF61E080E0B8
S11303C03EDF81E990E02BDF2FEF83ED90E32150B6
S11303D080409040E1F700C0000038DF7894FFCF00
S10703E0F894FFCFBB
S11303E4083230004D6F6E00547565005765640023
S11303F454687500467269005361740053756E0045
S1130404444154412046524F4D20445331333037F4
S113041400544F204C434420574954482049324304
S10504240000D2
S9030000FC
